:020000020000FC
:0200000045C0F9
:04007800ABD018955C
:10008C0000E10EBF0FEF0DBF08E001BB0FEF07BB88
:10009C0001E00093980000EA0093990008E90093AE
:1000AC009A000EE200939D00789400B3037F13EE48
:1000BC00011709F415D013ED011709F424D013EB33
:1000CC00011709F433D013E7011709F442D011EFEB
:1000DC00011709F451D012EF011709F460D0E5CFE4
:1000EC000F931F9310919B0015FFFCCF05E5009318
:1000FC009C0010919B0015FFFCCF00EB00939C0023
:10010C001F910F9108950F931F9310919B0015FF52
:10011C00FCCF05E500939C0010919B0015FFFCCFD4
:10012C0000E800939C001F910F9108950F931F936B
:10013C0010919B0015FFFCCF05E500939C001091DE
:10014C009B0015FFFCCF00EA00939C001F910F91C0
:10015C0008950F931F9310919B0015FFFCCF05E59D
:10016C0000939C0010919B0015FFFCCF00E90093BD
:10017C009C001F910F9108950F931F9310919B005A
:10018C0015FFFCCF05E500939C0010919B0015FF1B
:10019C00FCCF08EC00939C001F910F9108950F93D6
:1001AC001F9310919B0015FFFCCF05E500939C005D
:1001BC0010919B0015FFFCCF08EF00939C001F9142
:1001CC000F9108950F9300919C0008BB0F91089517
:00000001FF
