:020000020000FC
:0200000045C0F9
:0800040057D0189569D018953A
:10008C000FEF0DBF00E10EBF00EE07BB00E001BBA0
:10009C0000E000936A0000E000933A0003E009BF1F
:1000AC00789400E608BBFDCF0F931F930FB70F9307
:1000BC0000E008BB14E620D01FD000E208BB14E619
:1000CC001BD000E608BB0F910FBF1F910F91089535
:1000DC000F931F930FB70F9300E008BB14E614E6C1
:1000EC000BD000E408BB14E607D000E608BB0F9168
:1000FC000FBF1F910F9108951F932F933F9330EED5
:10010C002DEE2A95F1F73A95D9F71A95C1F73F914B
:08011C002F911F910895089531
:00000001FF
