:020000020000FC
:0200000045C0F9
:10008C000FEF0DBF00E10EBF2224E0EFF1E0A0E086
:10009C00B1E005910D9305910C93A3E0B1E00591AE
:1000AC000D9304910C9311D0CCE0D1E0A0E0B1E021
:1000BC00E3E0F1E009910D93019309910D93019304
:1000CC0009910D9301931FD0FFCFEF93FF93AF9343
:1000DC00BF933F924F92E0E0F1E0A3E0B1E0CCE0BF
:1000EC00D1E031904D90340C399230804C90341CCE
:1000FC003992221C288222244F903F90BF91AF91BD
:10010C00FF91EF9108953F924F921F920F922F9271
:10011C00BF93AF93DF93CF93FF93EF931F932F93E3
:10012C002224C3E0D1E0E6E0F1E013E0A0E0B1E08E
:10013C0023E03D904880349C31904190030C141C7A
:10014C003080321C30821292029231962A9589F7B5
:10015C00329721961A9551F72F911F91EF91FF919C
:10016C00CF91DF91AF91BF912F900F901F904F9037
:10017C003F9008953F924F921F920F922F92BF93F0
:10018C00AF93DF93CF93FF93EF931F932F9322247F
:10019C00C3E0D1E0E6E0F1E012E0A0E0B1E022E063
:1001AC003D904880349C31904190030C141C30805D
:1001BC00321C30821292029231962A9589F731972D
:1001CC0021961A9551F72F911F91EF91FF91CF9195
:1001DC00DF91AF91BF912F900F901F904F903F9058
:0801EC0008950895FFFFFFFFD5
:00000001FF
