:020000020000FC
:0200000045C0F9
:10008C0000E10EBF0FEF0DBF08E001BB0FEF07BB88
:10009C0001E00093980000EA0093990008E10093B6
:1000AC009A000EE200939D0030E674E000E608BB77
:1000BC00809B1AD0819B2CD000919B0007FFF8CF1E
:1000CC00212F10919C0017FFF3CF1F3F11F434D058
:1000DC00EFCF05E52013ECCF183F11F439D0E8CF62
:1000EC00110F312F18BBE4CF0F934F930FB70F9312
:1000FC0000E008BB44E63DD03CD000E208BB44E63F
:10010C0038D000E608BB0F910FBF4F910F910895A7
:10011C000F934F930FB70F9300E008BB44E644E6F0
:10012C0028D000E408BB44E624D000E608BB0F91BD
:10013C000FBF4F910F910895253549F000E908BB89
:10014C004AEF17D016D07A957030F9F338BB089572
:10015C0042E00FD000919B0005FFFACF05E500931C
:10016C009C0000919B0005FFFCCF0FEF00939C00BF
:10017C0008954F935F936F9360EE5DEE5A95F1F790
:10018C006A95D9F74A95C1F76F915F914F91089590
:00000001FF
