:020000020000FC
:0200000045C0F9
:080004005FD0189570D018952B
:10008C0000E10EBF0FEF0DBF0FEF07BB00E001BB90
:10009C0000E000936A0001E703BF05BD00E608BB62
:1000AC002FEF21BF23BD08B3007F1FE0012B08BB3E
:1000BC0003E009BF7894FFCF0F932F3F71F001E15C
:1000CC00200F21BF23BD08B3007F1395012B08BB64
:1000DC0000B30095E9F73AE015D00F9108950F930E
:1000EC00203071F00FEE200F21BF23BD08B3007F2D
:1000FC001A95012B08BB00B30095E9F73AE002D042
:10010C000F9108953F935F934F9340EE5DEE5A9598
:10011C00F1F74A95D9F73A95C1F74F915F913F9115
:04012C000895089595
:00000001FF
